{
  "_format": "hh-sol-artifact-1",
  "contractName": "TicketGroup",
  "sourceName": "contracts/TicketGroup.sol",
  "abi": [
    {
      "anonymous": false,
      "inputs": [
        {
          "indexed": true,
          "internalType": "address",
          "name": "owner",
          "type": "address"
        },
        {
          "indexed": true,
          "internalType": "address",
          "name": "approved",
          "type": "address"
        },
        {
          "indexed": true,
          "internalType": "uint256",
          "name": "tokenId",
          "type": "uint256"
        }
      ],
      "name": "Approval",
      "type": "event"
    },
    {
      "anonymous": false,
      "inputs": [
        {
          "indexed": true,
          "internalType": "address",
          "name": "owner",
          "type": "address"
        },
        {
          "indexed": true,
          "internalType": "address",
          "name": "operator",
          "type": "address"
        },
        {
          "indexed": false,
          "internalType": "bool",
          "name": "approved",
          "type": "bool"
        }
      ],
      "name": "ApprovalForAll",
      "type": "event"
    },
    {
      "anonymous": false,
      "inputs": [
        {
          "indexed": false,
          "internalType": "uint256",
          "name": "tokenId",
          "type": "uint256"
        }
      ],
      "name": "TicketCreated",
      "type": "event"
    },
    {
      "anonymous": false,
      "inputs": [
        {
          "indexed": true,
          "internalType": "address",
          "name": "from",
          "type": "address"
        },
        {
          "indexed": true,
          "internalType": "address",
          "name": "to",
          "type": "address"
        },
        {
          "indexed": true,
          "internalType": "uint256",
          "name": "tokenId",
          "type": "uint256"
        }
      ],
      "name": "Transfer",
      "type": "event"
    },
    {
      "inputs": [
        {
          "internalType": "address",
          "name": "to",
          "type": "address"
        },
        {
          "internalType": "uint256",
          "name": "tokenId",
          "type": "uint256"
        }
      ],
      "name": "approve",
      "outputs": [],
      "stateMutability": "nonpayable",
      "type": "function"
    },
    {
      "inputs": [
        {
          "internalType": "address",
          "name": "owner",
          "type": "address"
        }
      ],
      "name": "balanceOf",
      "outputs": [
        {
          "internalType": "uint256",
          "name": "",
          "type": "uint256"
        }
      ],
      "stateMutability": "view",
      "type": "function"
    },
    {
      "inputs": [
        {
          "internalType": "uint256",
          "name": "_tokenId",
          "type": "uint256"
        }
      ],
      "name": "buyTicket",
      "outputs": [],
      "stateMutability": "payable",
      "type": "function"
    },
    {
      "inputs": [],
      "name": "fetchAvailableTickets",
      "outputs": [
        {
          "components": [
            {
              "internalType": "uint256",
              "name": "tokenId",
              "type": "uint256"
            },
            {
              "internalType": "address payable",
              "name": "owner",
              "type": "address"
            },
            {
              "internalType": "uint256",
              "name": "price",
              "type": "uint256"
            },
            {
              "internalType": "bool",
              "name": "onSale",
              "type": "bool"
            },
            {
              "internalType": "string",
              "name": "category",
              "type": "string"
            }
          ],
          "internalType": "struct TicketGroup.TicketInfo[]",
          "name": "",
          "type": "tuple[]"
        }
      ],
      "stateMutability": "view",
      "type": "function"
    },
    {
      "inputs": [],
      "name": "fetchMyTickets",
      "outputs": [
        {
          "components": [
            {
              "internalType": "uint256",
              "name": "tokenId",
              "type": "uint256"
            },
            {
              "internalType": "address payable",
              "name": "owner",
              "type": "address"
            },
            {
              "internalType": "uint256",
              "name": "price",
              "type": "uint256"
            },
            {
              "internalType": "bool",
              "name": "onSale",
              "type": "bool"
            },
            {
              "internalType": "string",
              "name": "category",
              "type": "string"
            }
          ],
          "internalType": "struct TicketGroup.TicketInfo[]",
          "name": "",
          "type": "tuple[]"
        }
      ],
      "stateMutability": "view",
      "type": "function"
    },
    {
      "inputs": [
        {
          "internalType": "uint256",
          "name": "tokenId",
          "type": "uint256"
        }
      ],
      "name": "getApproved",
      "outputs": [
        {
          "internalType": "address",
          "name": "",
          "type": "address"
        }
      ],
      "stateMutability": "view",
      "type": "function"
    },
    {
      "inputs": [
        {
          "internalType": "uint256",
          "name": "_tokenId",
          "type": "uint256"
        }
      ],
      "name": "getTicketInfo",
      "outputs": [
        {
          "components": [
            {
              "internalType": "uint256",
              "name": "tokenId",
              "type": "uint256"
            },
            {
              "internalType": "address payable",
              "name": "owner",
              "type": "address"
            },
            {
              "internalType": "uint256",
              "name": "price",
              "type": "uint256"
            },
            {
              "internalType": "bool",
              "name": "onSale",
              "type": "bool"
            },
            {
              "internalType": "string",
              "name": "category",
              "type": "string"
            }
          ],
          "internalType": "struct TicketGroup.TicketInfo",
          "name": "",
          "type": "tuple"
        }
      ],
      "stateMutability": "view",
      "type": "function"
    },
    {
      "inputs": [
        {
          "internalType": "address payable",
          "name": "_owner",
          "type": "address"
        },
        {
          "internalType": "address payable",
          "name": "_factoryAddress",
          "type": "address"
        },
        {
          "internalType": "string",
          "name": "_universalURI",
          "type": "string"
        },
        {
          "internalType": "string[]",
          "name": "_categories",
          "type": "string[]"
        },
        {
          "internalType": "uint256[]",
          "name": "_amounts",
          "type": "uint256[]"
        },
        {
          "internalType": "uint256[]",
          "name": "_pricing",
          "type": "uint256[]"
        }
      ],
      "name": "initialize",
      "outputs": [],
      "stateMutability": "payable",
      "type": "function"
    },
    {
      "inputs": [
        {
          "internalType": "address",
          "name": "owner",
          "type": "address"
        },
        {
          "internalType": "address",
          "name": "operator",
          "type": "address"
        }
      ],
      "name": "isApprovedForAll",
      "outputs": [
        {
          "internalType": "bool",
          "name": "",
          "type": "bool"
        }
      ],
      "stateMutability": "view",
      "type": "function"
    },
    {
      "inputs": [],
      "name": "name",
      "outputs": [
        {
          "internalType": "string",
          "name": "",
          "type": "string"
        }
      ],
      "stateMutability": "view",
      "type": "function"
    },
    {
      "inputs": [
        {
          "internalType": "uint256",
          "name": "tokenId",
          "type": "uint256"
        }
      ],
      "name": "ownerOf",
      "outputs": [
        {
          "internalType": "address",
          "name": "",
          "type": "address"
        }
      ],
      "stateMutability": "view",
      "type": "function"
    },
    {
      "inputs": [
        {
          "internalType": "address",
          "name": "from",
          "type": "address"
        },
        {
          "internalType": "address",
          "name": "to",
          "type": "address"
        },
        {
          "internalType": "uint256",
          "name": "tokenId",
          "type": "uint256"
        }
      ],
      "name": "safeTransferFrom",
      "outputs": [],
      "stateMutability": "nonpayable",
      "type": "function"
    },
    {
      "inputs": [
        {
          "internalType": "address",
          "name": "from",
          "type": "address"
        },
        {
          "internalType": "address",
          "name": "to",
          "type": "address"
        },
        {
          "internalType": "uint256",
          "name": "tokenId",
          "type": "uint256"
        },
        {
          "internalType": "bytes",
          "name": "_data",
          "type": "bytes"
        }
      ],
      "name": "safeTransferFrom",
      "outputs": [],
      "stateMutability": "nonpayable",
      "type": "function"
    },
    {
      "inputs": [
        {
          "internalType": "address",
          "name": "operator",
          "type": "address"
        },
        {
          "internalType": "bool",
          "name": "approved",
          "type": "bool"
        }
      ],
      "name": "setApprovalForAll",
      "outputs": [],
      "stateMutability": "nonpayable",
      "type": "function"
    },
    {
      "inputs": [
        {
          "internalType": "uint256",
          "name": "_tokenId",
          "type": "uint256"
        },
        {
          "internalType": "bool",
          "name": "_state",
          "type": "bool"
        }
      ],
      "name": "setTicketOnSale",
      "outputs": [],
      "stateMutability": "nonpayable",
      "type": "function"
    },
    {
      "inputs": [
        {
          "internalType": "bytes4",
          "name": "interfaceId",
          "type": "bytes4"
        }
      ],
      "name": "supportsInterface",
      "outputs": [
        {
          "internalType": "bool",
          "name": "",
          "type": "bool"
        }
      ],
      "stateMutability": "view",
      "type": "function"
    },
    {
      "inputs": [],
      "name": "symbol",
      "outputs": [
        {
          "internalType": "string",
          "name": "",
          "type": "string"
        }
      ],
      "stateMutability": "view",
      "type": "function"
    },
    {
      "inputs": [
        {
          "internalType": "uint256",
          "name": "tokenId",
          "type": "uint256"
        }
      ],
      "name": "tokenURI",
      "outputs": [
        {
          "internalType": "string",
          "name": "",
          "type": "string"
        }
      ],
      "stateMutability": "view",
      "type": "function"
    },
    {
      "inputs": [
        {
          "internalType": "address",
          "name": "from",
          "type": "address"
        },
        {
          "internalType": "address",
          "name": "to",
          "type": "address"
        },
        {
          "internalType": "uint256",
          "name": "tokenId",
          "type": "uint256"
        }
      ],
      "name": "transferFrom",
      "outputs": [],
      "stateMutability": "nonpayable",
      "type": "function"
    }
  ],
  "bytecode": "0x608060405234801561001057600080fd5b5061278a806100206000396000f3fe6080604052600436106101145760003560e01c806367dd74ca116100a0578063c87b56dd11610064578063c87b56dd146102f5578063cc724a9214610315578063e20da5901461032a578063e985e9c51461034a578063ff99a0631461039357600080fd5b806367dd74ca1461025f57806370a082311461027257806395d89b41146102a0578063a22cb465146102b5578063b88d4fde146102d557600080fd5b806323b872dd116100e757806323b872dd146101ca5780633229f0e1146101ea5780633a37cf2b1461020c57806342842e0e1461021f5780636352211e1461023f57600080fd5b806301ffc9a71461011957806306fdde031461014e578063081812fc14610170578063095ea7b3146101a8575b600080fd5b34801561012557600080fd5b506101396101343660046122f5565b6103c0565b60405190151581526020015b60405180910390f35b34801561015a57600080fd5b50610163610412565b60405161014591906124ed565b34801561017c57600080fd5b5061019061018b36600461232d565b6104a4565b6040516001600160a01b039091168152602001610145565b3480156101b457600080fd5b506101c86101c33660046122ca565b610531565b005b3480156101d657600080fd5b506101c86101e53660046121d9565b610647565b3480156101f657600080fd5b506101ff610678565b604051610145919061248c565b6101c861021a3660046120d9565b6108a4565b34801561022b57600080fd5b506101c861023a3660046121d9565b610ac8565b34801561024b57600080fd5b5061019061025a36600461232d565b610ae3565b6101c861026d36600461232d565b610b5a565b34801561027e57600080fd5b5061029261028d3660046120bd565b610cd0565b604051908152602001610145565b3480156102ac57600080fd5b50610163610d57565b3480156102c157600080fd5b506101c86102d0366004612296565b610d66565b3480156102e157600080fd5b506101c86102f0366004612219565b610d75565b34801561030157600080fd5b5061016361031036600461232d565b610da7565b34801561032157600080fd5b506101ff610f1e565b34801561033657600080fd5b506101c8610345366004612345565b611116565b34801561035657600080fd5b506101396103653660046121a1565b6001600160a01b039182166000908152606a6020908152604080832093909416825291909152205460ff1690565b34801561039f57600080fd5b506103b36103ae36600461232d565b6111d2565b60405161014591906125a3565b60006001600160e01b031982166380ac58cd60e01b14806103f157506001600160e01b03198216635b5e139f60e01b145b8061040c57506301ffc9a760e01b6001600160e01b03198316145b92915050565b6060606580546104219061267a565b80601f016020809104026020016040519081016040528092919081815260200182805461044d9061267a565b801561049a5780601f1061046f5761010080835404028352916020019161049a565b820191906000526020600020905b81548152906001019060200180831161047d57829003601f168201915b5050505050905090565b60006104af826112c7565b6105155760405162461bcd60e51b815260206004820152602c60248201527f4552433732313a20617070726f76656420717565727920666f72206e6f6e657860448201526b34b9ba32b73a103a37b5b2b760a11b60648201526084015b60405180910390fd5b506000908152606960205260409020546001600160a01b031690565b600061053c82610ae3565b9050806001600160a01b0316836001600160a01b031614156105aa5760405162461bcd60e51b815260206004820152602160248201527f4552433732313a20617070726f76616c20746f2063757272656e74206f776e656044820152603960f91b606482015260840161050c565b336001600160a01b03821614806105c657506105c68133610365565b6106385760405162461bcd60e51b815260206004820152603860248201527f4552433732313a20617070726f76652063616c6c6572206973206e6f74206f7760448201527f6e6572206e6f7220617070726f76656420666f7220616c6c0000000000000000606482015260840161050c565b61064283836112e4565b505050565b6106513382611352565b61066d5760405162461bcd60e51b815260040161050c90612552565b610642838383611438565b6060600061068560c95490565b905060008060015b8381116106d657600081815260cd60205260409020600101546001600160a01b03163314156106c4576106c160018461260b565b92505b806106ce816126b5565b91505061068d565b5060008267ffffffffffffffff81111561070057634e487b7160e01b600052604160045260246000fd5b60405190808252806020026020018201604052801561073957816020015b610726611e64565b81526020019060019003908161071e5790505b50905060015b84811161089b57600081815260cd60205260409020600101546001600160a01b031633141561088957600081815260cd6020908152604091829020825160a0810184528154815260018201546001600160a01b031692810192909252600281015492820192909252600382015460ff1615156060820152600482018054839160808401916107cc9061267a565b80601f01602080910402602001604051908101604052809291908181526020018280546107f89061267a565b80156108455780601f1061081a57610100808354040283529160200191610845565b820191906000526020600020905b81548152906001019060200180831161082857829003601f168201915b50505050508152505083858151811061086e57634e487b7160e01b600052603260045260246000fd5b60200260200101819052508380610884906126b5565b945050505b80610893816126b5565b91505061073f565b50949350505050565b600054610100900460ff166108bf5760005460ff16156108c3565b303b155b6109265760405162461bcd60e51b815260206004820152602e60248201527f496e697469616c697a61626c653a20636f6e747261637420697320616c72656160448201526d191e481a5b9a5d1a585b1a5e995960921b606482015260840161050c565b600054610100900460ff16158015610948576000805461ffff19166101011790555b60cc80546001600160a01b03808a166001600160a01b03199283161790925560cb80549289169290911691909117905534670de0b6b3a764000090811490610999906109949080612623565b6115d4565b6040516020016109a99190612409565b604051602081830303815290604052906109d65760405162461bcd60e51b815260040161050c91906124ed565b506040516001600160a01b038716903480156108fc02916000818181858888f19350505050158015610a0c573d6000803e3d6000fd5b5060005b8451811015610aac57610a9a86868381518110610a3d57634e487b7160e01b600052603260045260246000fd5b6020026020010151858481518110610a6557634e487b7160e01b600052603260045260246000fd5b6020026020010151878581518110610a8d57634e487b7160e01b600052603260045260246000fd5b60200260200101516116ee565b80610aa4816126b5565b915050610a10565b508015610abf576000805461ff00191690555b50505050505050565b61064283838360405180602001604052806000815250610d75565b6000818152606760205260408120546001600160a01b03168061040c5760405162461bcd60e51b815260206004820152602960248201527f4552433732313a206f776e657220717565727920666f72206e6f6e657869737460448201526832b73a103a37b5b2b760b91b606482015260840161050c565b600081815260cd6020908152604091829020600181015460029091015483517f46756e647320696e73756666696369656e742c20706c656173652073656e642093810193909352928201839052630408aa8960e31b60608301526001600160a01b031691903482149060640160405160208183030381529060405290610bf35760405162461bcd60e51b815260040161050c91906124ed565b50600083815260cd602052604090206003015460ff161515600114610c4f5760405162461bcd60e51b81526020600482015260126024820152715469636b6574206e6f74206f6e2073616c6560701b604482015260640161050c565b610c5a823385611438565b600083815260cd602052604090206001810180546001600160a01b03191633179055600301805460ff19169055610c9560ca80546001019055565b6040516001600160a01b038316903480156108fc02916000818181858888f19350505050158015610cca573d6000803e3d6000fd5b50505050565b60006001600160a01b038216610d3b5760405162461bcd60e51b815260206004820152602a60248201527f4552433732313a2062616c616e636520717565727920666f7220746865207a65604482015269726f206164647265737360b01b606482015260840161050c565b506001600160a01b031660009081526068602052604090205490565b6060606680546104219061267a565b610d7133838361177b565b5050565b610d7f3383611352565b610d9b5760405162461bcd60e51b815260040161050c90612552565b610cca8484848461184a565b6060610db2826112c7565b610e185760405162461bcd60e51b815260206004820152603160248201527f45524337323155524953746f726167653a2055524920717565727920666f72206044820152703737b732bc34b9ba32b73a103a37b5b2b760791b606482015260840161050c565b60008281526097602052604081208054610e319061267a565b80601f0160208091040260200160405190810160405280929190818152602001828054610e5d9061267a565b8015610eaa5780601f10610e7f57610100808354040283529160200191610eaa565b820191906000526020600020905b815481529060010190602001808311610e8d57829003601f168201915b505050505090506000610ec860408051602081019091526000815290565b9050805160001415610edb575092915050565b815115610f0d578082604051602001610ef59291906123da565b60405160208183030381529060405292505050919050565b610f168461187d565b949350505050565b60606000610f2b60c95490565b90506000610f3860ca5490565b610f429083612637565b90506000808267ffffffffffffffff811115610f6e57634e487b7160e01b600052604160045260246000fd5b604051908082528060200260200182016040528015610fa757816020015b610f94611e64565b815260200190600190039081610f8c5790505b50905060015b610fb885600161260b565b81101561089b57600081815260cd602052604090206003015460ff1615156001141561110457600081815260cd6020908152604091829020825160a0810184528154815260018201546001600160a01b031692810192909252600281015492820192909252600382015460ff16151560608201526004820180548493929183916080840191906110479061267a565b80601f01602080910402602001604051908101604052809291908181526020018280546110739061267a565b80156110c05780601f10611095576101008083540402835291602001916110c0565b820191906000526020600020905b8154815290600101906020018083116110a357829003601f168201915b5050505050815250508486815181106110e957634e487b7160e01b600052603260045260246000fd5b60209081029190910101526110ff60018661260b565b945050505b8061110e816126b5565b915050610fad565b600082815260cd60205260409020600101546001600160a01b031633146111945760405162461bcd60e51b815260206004820152602c60248201527f4f6e6c79207469636b6574206f776e65722063616e20706572666f726d20746860448201526b34b99037b832b930ba34b7b760a11b606482015260840161050c565b600082815260cd60205260409020600301805460ff191682158015919091179091556111c457610d7160ca611955565b610d7160ca80546001019055565b6111da611e64565b600082815260cd60209081526040808320815160a0810183528154815260018201546001600160a01b031693810193909352600281015491830191909152600381015460ff161515606083015260048101805460808401919061123c9061267a565b80601f01602080910402602001604051908101604052809291908181526020018280546112689061267a565b80156112b55780601f1061128a576101008083540402835291602001916112b5565b820191906000526020600020905b81548152906001019060200180831161129857829003601f168201915b50505091909252509195945050505050565b6000908152606760205260409020546001600160a01b0316151590565b600081815260696020526040902080546001600160a01b0319166001600160a01b038416908117909155819061131982610ae3565b6001600160a01b03167f8c5be1e5ebec7d5bd14f71427d1e84f3dd0314c0f7b2291e5b200ac8c7c3b92560405160405180910390a45050565b600061135d826112c7565b6113be5760405162461bcd60e51b815260206004820152602c60248201527f4552433732313a206f70657261746f7220717565727920666f72206e6f6e657860448201526b34b9ba32b73a103a37b5b2b760a11b606482015260840161050c565b60006113c983610ae3565b9050806001600160a01b0316846001600160a01b031614806114045750836001600160a01b03166113f9846104a4565b6001600160a01b0316145b80610f1657506001600160a01b038082166000908152606a602090815260408083209388168352929052205460ff16610f16565b826001600160a01b031661144b82610ae3565b6001600160a01b0316146114af5760405162461bcd60e51b815260206004820152602560248201527f4552433732313a207472616e736665722066726f6d20696e636f72726563742060448201526437bbb732b960d91b606482015260840161050c565b6001600160a01b0382166115115760405162461bcd60e51b8152602060048201526024808201527f4552433732313a207472616e7366657220746f20746865207a65726f206164646044820152637265737360e01b606482015260840161050c565b61151c6000826112e4565b6001600160a01b0383166000908152606860205260408120805460019290611545908490612637565b90915550506001600160a01b038216600090815260686020526040812080546001929061157390849061260b565b909155505060008181526067602052604080822080546001600160a01b0319166001600160a01b0386811691821790925591518493918716917fddf252ad1be2c89b69c2b068fc378daa952ba7f163c4a11628f55a4df523b3ef91a4505050565b6060816115f85750506040805180820190915260018152600360fc1b602082015290565b8160005b8115611622578061160c816126b5565b915061161b9050600a83612623565b91506115fc565b60008167ffffffffffffffff81111561164b57634e487b7160e01b600052604160045260246000fd5b6040519080825280601f01601f191660200182016040528015611675576020820181803683370190505b5090505b8415610f165761168a600183612637565b9150611697600a866126d0565b6116a290603061260b565b60f81b8183815181106116c557634e487b7160e01b600052603260045260246000fd5b60200101906001600160f81b031916908160001a9053506116e7600a86612623565b9450611679565b60005b818110156117745761170760c980546001019055565b600061171260c95490565b60cc5490915061172b906001600160a01b0316826119ac565b6117568187876040516020016117429291906123da565b604051602081830303815290604052611adf565b611761818587611b6a565b508061176c816126b5565b9150506116f1565b5050505050565b816001600160a01b0316836001600160a01b031614156117dd5760405162461bcd60e51b815260206004820152601960248201527f4552433732313a20617070726f766520746f2063616c6c657200000000000000604482015260640161050c565b6001600160a01b038381166000818152606a6020908152604080832094871680845294825291829020805460ff191686151590811790915591519182527f17307eab39ab6107e8899845ad3d59bd9653f200f220920489ca2b5937696c31910160405180910390a3505050565b611855848484611438565b61186184848484611c3d565b610cca5760405162461bcd60e51b815260040161050c90612500565b6060611888826112c7565b6118ec5760405162461bcd60e51b815260206004820152602f60248201527f4552433732314d657461646174613a2055524920717565727920666f72206e6f60448201526e3732bc34b9ba32b73a103a37b5b2b760891b606482015260840161050c565b600061190360408051602081019091526000815290565b90506000815111611923576040518060200160405280600081525061194e565b8061192d84611d4a565b60405160200161193e9291906123da565b6040516020818303038152906040525b9392505050565b8054806119a45760405162461bcd60e51b815260206004820152601b60248201527f436f756e7465723a2064656372656d656e74206f766572666c6f770000000000604482015260640161050c565b600019019055565b6001600160a01b038216611a025760405162461bcd60e51b815260206004820181905260248201527f4552433732313a206d696e7420746f20746865207a65726f2061646472657373604482015260640161050c565b611a0b816112c7565b15611a585760405162461bcd60e51b815260206004820152601c60248201527f4552433732313a20746f6b656e20616c7265616479206d696e74656400000000604482015260640161050c565b6001600160a01b0382166000908152606860205260408120805460019290611a8190849061260b565b909155505060008181526067602052604080822080546001600160a01b0319166001600160a01b03861690811790915590518392907fddf252ad1be2c89b69c2b068fc378daa952ba7f163c4a11628f55a4df523b3ef908290a45050565b611ae8826112c7565b611b4b5760405162461bcd60e51b815260206004820152602e60248201527f45524337323155524953746f726167653a2055524920736574206f66206e6f6e60448201526d32bc34b9ba32b73a103a37b5b2b760911b606482015260840161050c565b6000828152609760209081526040909120825161064292840190611e9e565b6040805160a08101825284815260cc546001600160a01b0390811660208084019182528385018781526001606086018181526080870189815260008c815260cd86529890982087518155945191850180546001600160a01b0319169290961691909117909455516002830155915160038201805460ff191691151591909117905592518051929392611c029260048501920190611e9e565b50506040518481527f017816d6671654d29260799b31a628be724d7e4fa8e22da3fae8ab443ec0a3c3915060200160405180910390a1505050565b60006001600160a01b0384163b15611d3f57604051630a85bd0160e11b81526001600160a01b0385169063150b7a0290611c8190339089908890889060040161244f565b602060405180830381600087803b158015611c9b57600080fd5b505af1925050508015611ccb575060408051601f3d908101601f19168201909252611cc891810190612311565b60015b611d25573d808015611cf9576040519150601f19603f3d011682016040523d82523d6000602084013e611cfe565b606091505b508051611d1d5760405162461bcd60e51b815260040161050c90612500565b805181602001fd5b6001600160e01b031916630a85bd0160e11b149050610f16565b506001949350505050565b606081611d6e5750506040805180820190915260018152600360fc1b602082015290565b8160005b8115611d985780611d82816126b5565b9150611d919050600a83612623565b9150611d72565b60008167ffffffffffffffff811115611dc157634e487b7160e01b600052604160045260246000fd5b6040519080825280601f01601f191660200182016040528015611deb576020820181803683370190505b5090505b8415610f1657611e00600183612637565b9150611e0d600a866126d0565b611e1890603061260b565b60f81b818381518110611e3b57634e487b7160e01b600052603260045260246000fd5b60200101906001600160f81b031916908160001a905350611e5d600a86612623565b9450611def565b6040518060a001604052806000815260200160006001600160a01b0316815260200160008152602001600015158152602001606081525090565b828054611eaa9061267a565b90600052602060002090601f016020900481019282611ecc5760008555611f12565b82601f10611ee557805160ff1916838001178555611f12565b82800160010185558215611f12579182015b82811115611f12578251825591602001919060010190611ef7565b50611f1e929150611f22565b5090565b5b80821115611f1e5760008155600101611f23565b600067ffffffffffffffff831115611f5157611f51612710565b611f64601f8401601f19166020016125b6565b9050828152838383011115611f7857600080fd5b828260208301376000602084830101529392505050565b8035611f9a81612726565b919050565b600082601f830112611faf578081fd5b81356020611fc4611fbf836125e7565b6125b6565b80838252828201915082860187848660051b8901011115611fe3578586fd5b855b8581101561202457813567ffffffffffffffff811115612003578788fd5b6120118a87838c010161209e565b8552509284019290840190600101611fe5565b5090979650505050505050565b600082601f830112612041578081fd5b81356020612051611fbf836125e7565b80838252828201915082860187848660051b8901011115612070578586fd5b855b8581101561202457813584529284019290840190600101612072565b80358015158114611f9a57600080fd5b600082601f8301126120ae578081fd5b61194e83833560208501611f37565b6000602082840312156120ce578081fd5b813561194e81612726565b60008060008060008060c087890312156120f1578182fd5b6120fa87611f8f565b955061210860208801611f8f565b9450604087013567ffffffffffffffff80821115612124578384fd5b6121308a838b0161209e565b95506060890135915080821115612145578384fd5b6121518a838b01611f9f565b94506080890135915080821115612166578384fd5b6121728a838b01612031565b935060a0890135915080821115612187578283fd5b5061219489828a01612031565b9150509295509295509295565b600080604083850312156121b3578182fd5b82356121be81612726565b915060208301356121ce81612726565b809150509250929050565b6000806000606084860312156121ed578283fd5b83356121f881612726565b9250602084013561220881612726565b929592945050506040919091013590565b6000806000806080858703121561222e578384fd5b843561223981612726565b9350602085013561224981612726565b925060408501359150606085013567ffffffffffffffff81111561226b578182fd5b8501601f8101871361227b578182fd5b61228a87823560208401611f37565b91505092959194509250565b600080604083850312156122a8578182fd5b82356122b381612726565b91506122c16020840161208e565b90509250929050565b600080604083850312156122dc578182fd5b82356122e781612726565b946020939093013593505050565b600060208284031215612306578081fd5b813561194e8161273e565b600060208284031215612322578081fd5b815161194e8161273e565b60006020828403121561233e578081fd5b5035919050565b60008060408385031215612357578182fd5b823591506122c16020840161208e565b6000815180845261237f81602086016020860161264e565b601f01601f19169290920160200192915050565b8051825260018060a01b036020820151166020830152604081015160408301526060810151151560608301526000608082015160a06080850152610f1660a0850182612367565b600083516123ec81846020880161264e565b83519083019061240081836020880161264e565b01949350505050565b7002634b9ba34b73390383934b1b29034b99607d1b81526000825161243581601185016020870161264e565b6208aa8960eb1b6011939091019283015250601401919050565b6001600160a01b038581168252841660208201526040810183905260806060820181905260009061248290830184612367565b9695505050505050565b6000602080830181845280855180835260408601915060408160051b8701019250838701855b828110156124e057603f198886030184526124ce858351612393565b945092850192908501906001016124b2565b5092979650505050505050565b60208152600061194e6020830184612367565b60208082526032908201527f4552433732313a207472616e7366657220746f206e6f6e20455243373231526560408201527131b2b4bb32b91034b6b83632b6b2b73a32b960711b606082015260800190565b60208082526031908201527f4552433732313a207472616e736665722063616c6c6572206973206e6f74206f6040820152701ddb995c881b9bdc88185c1c1c9bdd9959607a1b606082015260800190565b60208152600061194e6020830184612393565b604051601f8201601f1916810167ffffffffffffffff811182821017156125df576125df612710565b604052919050565b600067ffffffffffffffff82111561260157612601612710565b5060051b60200190565b6000821982111561261e5761261e6126e4565b500190565b600082612632576126326126fa565b500490565b600082821015612649576126496126e4565b500390565b60005b83811015612669578181015183820152602001612651565b83811115610cca5750506000910152565b600181811c9082168061268e57607f821691505b602082108114156126af57634e487b7160e01b600052602260045260246000fd5b50919050565b60006000198214156126c9576126c96126e4565b5060010190565b6000826126df576126df6126fa565b500690565b634e487b7160e01b600052601160045260246000fd5b634e487b7160e01b600052601260045260246000fd5b634e487b7160e01b600052604160045260246000fd5b6001600160a01b038116811461273b57600080fd5b50565b6001600160e01b03198116811461273b57600080fdfea2646970667358221220306362bfffaa59e2ba5242c264af9b8aefbb2b739df9bcdeb91af624f3d71fe564736f6c63430008040033",
  "linkReferences": {},
  "deployedLinkReferences": {}
}